{
  "contractName": "Staking",
  "abi": [
    {
      "inputs": [],
      "stateMutability": "nonpayable",
      "type": "constructor"
    },
    {
      "anonymous": false,
      "inputs": [
        {
          "indexed": false,
          "internalType": "uint256",
          "name": "stakeAmount",
          "type": "uint256"
        },
        {
          "indexed": false,
          "internalType": "address",
          "name": "from",
          "type": "address"
        }
      ],
      "name": "NewStake",
      "type": "event"
    },
    {
      "anonymous": false,
      "inputs": [
        {
          "indexed": true,
          "internalType": "address",
          "name": "previousOwner",
          "type": "address"
        },
        {
          "indexed": true,
          "internalType": "address",
          "name": "newOwner",
          "type": "address"
        }
      ],
      "name": "OwnershipTransferred",
      "type": "event"
    },
    {
      "anonymous": false,
      "inputs": [],
      "name": "PotExhausted",
      "type": "event"
    },
    {
      "anonymous": false,
      "inputs": [
        {
          "indexed": false,
          "internalType": "uint256",
          "name": "newPot",
          "type": "uint256"
        }
      ],
      "name": "PotUpdated",
      "type": "event"
    },
    {
      "anonymous": false,
      "inputs": [
        {
          "indexed": false,
          "internalType": "uint256",
          "name": "stakeID",
          "type": "uint256"
        },
        {
          "indexed": false,
          "internalType": "uint256",
          "name": "amount",
          "type": "uint256"
        }
      ],
      "name": "StakeWithdraw",
      "type": "event"
    },
    {
      "anonymous": false,
      "inputs": [],
      "name": "machineStopped",
      "type": "event"
    },
    {
      "anonymous": false,
      "inputs": [
        {
          "indexed": false,
          "internalType": "address",
          "name": "account",
          "type": "address"
        },
        {
          "indexed": false,
          "internalType": "uint256",
          "name": "reward",
          "type": "uint256"
        }
      ],
      "name": "referralRewardSent",
      "type": "event"
    },
    {
      "anonymous": false,
      "inputs": [
        {
          "indexed": false,
          "internalType": "address",
          "name": "account",
          "type": "address"
        }
      ],
      "name": "rewardWithdrawed",
      "type": "event"
    },
    {
      "anonymous": false,
      "inputs": [],
      "name": "subscriptionStopped",
      "type": "event"
    },
    {
      "inputs": [],
      "name": "owner",
      "outputs": [
        {
          "internalType": "address",
          "name": "",
          "type": "address"
        }
      ],
      "stateMutability": "view",
      "type": "function",
      "constant": true
    },
    {
      "inputs": [],
      "name": "renounceOwnership",
      "outputs": [],
      "stateMutability": "nonpayable",
      "type": "function"
    },
    {
      "inputs": [
        {
          "internalType": "address",
          "name": "newOwner",
          "type": "address"
        }
      ],
      "name": "transferOwnership",
      "outputs": [],
      "stateMutability": "nonpayable",
      "type": "function"
    },
    {
      "inputs": [
        {
          "internalType": "address",
          "name": "_tokenAddress",
          "type": "address"
        }
      ],
      "name": "setTokenAddress",
      "outputs": [],
      "stateMutability": "nonpayable",
      "type": "function"
    },
    {
      "inputs": [],
      "name": "isTokenSet",
      "outputs": [
        {
          "internalType": "bool",
          "name": "",
          "type": "bool"
        }
      ],
      "stateMutability": "view",
      "type": "function",
      "constant": true
    },
    {
      "inputs": [],
      "name": "getTokenAddress",
      "outputs": [
        {
          "internalType": "address",
          "name": "",
          "type": "address"
        }
      ],
      "stateMutability": "view",
      "type": "function",
      "constant": true
    },
    {
      "inputs": [
        {
          "internalType": "uint256",
          "name": "_amount",
          "type": "uint256"
        }
      ],
      "name": "depositPot",
      "outputs": [],
      "stateMutability": "nonpayable",
      "type": "function"
    },
    {
      "inputs": [
        {
          "internalType": "uint256",
          "name": "_amount",
          "type": "uint256"
        }
      ],
      "name": "returnPot",
      "outputs": [],
      "stateMutability": "nonpayable",
      "type": "function"
    },
    {
      "inputs": [],
      "name": "finalShutdown",
      "outputs": [],
      "stateMutability": "nonpayable",
      "type": "function"
    },
    {
      "inputs": [],
      "name": "getAllAccount",
      "outputs": [
        {
          "internalType": "address[]",
          "name": "",
          "type": "address[]"
        }
      ],
      "stateMutability": "view",
      "type": "function",
      "constant": true
    },
    {
      "inputs": [],
      "name": "getPotentialWithdrawAmount",
      "outputs": [
        {
          "internalType": "uint256",
          "name": "",
          "type": "uint256"
        }
      ],
      "stateMutability": "view",
      "type": "function",
      "constant": true
    },
    {
      "inputs": [
        {
          "internalType": "uint256",
          "name": "_amount",
          "type": "uint256"
        },
        {
          "internalType": "address",
          "name": "_referralAddress",
          "type": "address"
        }
      ],
      "name": "stakeToken",
      "outputs": [],
      "stateMutability": "nonpayable",
      "type": "function"
    },
    {
      "inputs": [
        {
          "internalType": "uint256",
          "name": "_stakeID",
          "type": "uint256"
        }
      ],
      "name": "returnTokens",
      "outputs": [
        {
          "internalType": "bool",
          "name": "",
          "type": "bool"
        }
      ],
      "stateMutability": "nonpayable",
      "type": "function"
    },
    {
      "inputs": [
        {
          "internalType": "uint256",
          "name": "_stakeID",
          "type": "uint256"
        }
      ],
      "name": "withdrawReward",
      "outputs": [
        {
          "internalType": "bool",
          "name": "",
          "type": "bool"
        }
      ],
      "stateMutability": "nonpayable",
      "type": "function"
    },
    {
      "inputs": [],
      "name": "withdrawReferralReward",
      "outputs": [
        {
          "internalType": "bool",
          "name": "",
          "type": "bool"
        }
      ],
      "stateMutability": "nonpayable",
      "type": "function"
    },
    {
      "inputs": [
        {
          "internalType": "uint256",
          "name": "_amount",
          "type": "uint256"
        }
      ],
      "name": "withdrawFromPot",
      "outputs": [
        {
          "internalType": "bool",
          "name": "",
          "type": "bool"
        }
      ],
      "stateMutability": "nonpayable",
      "type": "function"
    },
    {
      "inputs": [
        {
          "internalType": "uint256",
          "name": "_stakeID",
          "type": "uint256"
        }
      ],
      "name": "getCurrentStakeAmount",
      "outputs": [
        {
          "internalType": "uint256",
          "name": "",
          "type": "uint256"
        }
      ],
      "stateMutability": "view",
      "type": "function",
      "constant": true
    },
    {
      "inputs": [],
      "name": "getTotalStakeAmount",
      "outputs": [
        {
          "internalType": "uint256",
          "name": "",
          "type": "uint256"
        }
      ],
      "stateMutability": "view",
      "type": "function",
      "constant": true
    },
    {
      "inputs": [
        {
          "internalType": "uint256",
          "name": "_stakeID",
          "type": "uint256"
        }
      ],
      "name": "getStakeInfo",
      "outputs": [
        {
          "internalType": "uint256",
          "name": "",
          "type": "uint256"
        },
        {
          "internalType": "bool",
          "name": "",
          "type": "bool"
        },
        {
          "internalType": "uint256",
          "name": "",
          "type": "uint256"
        },
        {
          "internalType": "address",
          "name": "",
          "type": "address"
        },
        {
          "internalType": "uint256",
          "name": "",
          "type": "uint256"
        },
        {
          "internalType": "uint256",
          "name": "",
          "type": "uint256"
        }
      ],
      "stateMutability": "view",
      "type": "function",
      "constant": true
    },
    {
      "inputs": [],
      "name": "getCurrentPot",
      "outputs": [
        {
          "internalType": "uint256",
          "name": "",
          "type": "uint256"
        }
      ],
      "stateMutability": "view",
      "type": "function",
      "constant": true
    },
    {
      "inputs": [],
      "name": "getStakeCount",
      "outputs": [
        {
          "internalType": "uint256",
          "name": "",
          "type": "uint256"
        }
      ],
      "stateMutability": "view",
      "type": "function",
      "constant": true
    },
    {
      "inputs": [],
      "name": "getActiveStakeCount",
      "outputs": [
        {
          "internalType": "uint256",
          "name": "",
          "type": "uint256"
        }
      ],
      "stateMutability": "view",
      "type": "function",
      "constant": true
    },
    {
      "inputs": [],
      "name": "getReferralCount",
      "outputs": [
        {
          "internalType": "uint256",
          "name": "",
          "type": "uint256"
        }
      ],
      "stateMutability": "view",
      "type": "function",
      "constant": true
    },
    {
      "inputs": [],
      "name": "getAccountReferral",
      "outputs": [
        {
          "internalType": "address[]",
          "name": "",
          "type": "address[]"
        }
      ],
      "stateMutability": "view",
      "type": "function",
      "constant": true
    },
    {
      "inputs": [
        {
          "internalType": "uint256",
          "name": "_stakeID",
          "type": "uint256"
        }
      ],
      "name": "getAlreadyWithdrawedAmount",
      "outputs": [
        {
          "internalType": "uint256",
          "name": "",
          "type": "uint256"
        }
      ],
      "stateMutability": "view",
      "type": "function",
      "constant": true
    },
    {
      "inputs": [],
      "name": "hasReferral",
      "outputs": [
        {
          "internalType": "bool",
          "name": "",
          "type": "bool"
        }
      ],
      "stateMutability": "view",
      "type": "function",
      "constant": true
    },
    {
      "inputs": [],
      "name": "getMyReferral",
      "outputs": [
        {
          "internalType": "address",
          "name": "",
          "type": "address"
        }
      ],
      "stateMutability": "view",
      "type": "function",
      "constant": true
    },
    {
      "inputs": [],
      "name": "getCurrentReferrals",
      "outputs": [
        {
          "internalType": "address[]",
          "name": "",
          "type": "address[]"
        }
      ],
      "stateMutability": "view",
      "type": "function",
      "constant": true
    },
    {
      "inputs": [
        {
          "internalType": "address",
          "name": "customer",
          "type": "address"
        }
      ],
      "name": "calculateRewardReferral",
      "outputs": [
        {
          "internalType": "uint256",
          "name": "",
          "type": "uint256"
        }
      ],
      "stateMutability": "view",
      "type": "function",
      "constant": true
    },
    {
      "inputs": [
        {
          "internalType": "address",
          "name": "_account",
          "type": "address"
        }
      ],
      "name": "calculateTotalRewardReferral",
      "outputs": [
        {
          "internalType": "uint256",
          "name": "",
          "type": "uint256"
        }
      ],
      "stateMutability": "view",
      "type": "function",
      "constant": true
    },
    {
      "inputs": [],
      "name": "calculateTotalRewardReferral",
      "outputs": [
        {
          "internalType": "uint256",
          "name": "",
          "type": "uint256"
        }
      ],
      "stateMutability": "view",
      "type": "function",
      "constant": true
    },
    {
      "inputs": [
        {
          "internalType": "address",
          "name": "customer",
          "type": "address"
        }
      ],
      "name": "getLowestStake",
      "outputs": [
        {
          "internalType": "uint256",
          "name": "",
          "type": "uint256"
        },
        {
          "internalType": "uint256",
          "name": "",
          "type": "uint256"
        }
      ],
      "stateMutability": "view",
      "type": "function",
      "constant": true
    },
    {
      "inputs": [
        {
          "internalType": "uint256",
          "name": "_stakeID",
          "type": "uint256"
        }
      ],
      "name": "calculateRewardToWithdraw",
      "outputs": [
        {
          "internalType": "uint256",
          "name": "",
          "type": "uint256"
        }
      ],
      "stateMutability": "view",
      "type": "function",
      "constant": true
    },
    {
      "inputs": [
        {
          "internalType": "uint256",
          "name": "_stakeID",
          "type": "uint256"
        }
      ],
      "name": "calculateCompoundInterest",
      "outputs": [
        {
          "internalType": "uint256",
          "name": "",
          "type": "uint256"
        }
      ],
      "stateMutability": "view",
      "type": "function",
      "constant": true
    },
    {
      "inputs": [
        {
          "internalType": "uint256",
          "name": "_stakeID",
          "type": "uint256"
        }
      ],
      "name": "calculatePeriods",
      "outputs": [
        {
          "internalType": "uint256",
          "name": "",
          "type": "uint256"
        }
      ],
      "stateMutability": "view",
      "type": "function",
      "constant": true
    },
    {
      "inputs": [
        {
          "internalType": "address",
          "name": "_account",
          "type": "address"
        },
        {
          "internalType": "uint256",
          "name": "_stakeID",
          "type": "uint256"
        }
      ],
      "name": "calculateAccountStakePeriods",
      "outputs": [
        {
          "internalType": "uint256",
          "name": "",
          "type": "uint256"
        }
      ],
      "stateMutability": "view",
      "type": "function",
      "constant": true
    },
    {
      "inputs": [],
      "name": "getMachineState",
      "outputs": [
        {
          "internalType": "uint256",
          "name": "",
          "type": "uint256"
        }
      ],
      "stateMutability": "view",
      "type": "function",
      "constant": true
    },
    {
      "inputs": [],
      "name": "isSubscriptionEnded",
      "outputs": [
        {
          "internalType": "bool",
          "name": "",
          "type": "bool"
        }
      ],
      "stateMutability": "view",
      "type": "function",
      "constant": true
    },
    {
      "inputs": [],
      "name": "isMachineStopped",
      "outputs": [
        {
          "internalType": "bool",
          "name": "",
          "type": "bool"
        }
      ],
      "stateMutability": "view",
      "type": "function",
      "constant": true
    },
    {
      "inputs": [],
      "name": "getOwner",
      "outputs": [
        {
          "internalType": "address",
          "name": "",
          "type": "address"
        }
      ],
      "stateMutability": "view",
      "type": "function",
      "constant": true
    }
  ],
  "bytecode": "0x60806040523480156200001157600080fd5b506000620000246200014060201b60201c565b9050806000806101000a81548173ffffffffffffffffffffffffffffffffffffffff021916908373ffffffffffffffffffffffffffffffffffffffff1602179055508073ffffffffffffffffffffffffffffffffffffffff16600073ffffffffffffffffffffffffffffffffffffffff167f8be0079c531659141344cd1fd0a4f28419497f9722a3daafe3b4186f6b6457e060405160405180910390a3506001808190555060006005819055506012600a620000e19190620001a3565b6302faf080620000f29190620002e0565b6006819055506000600360006101000a81548173ffffffffffffffffffffffffffffffffffffffff021916908373ffffffffffffffffffffffffffffffffffffffff16021790555062000387565b600033905090565b6000808291508390505b60018511156200019a578086048111156200017257620001716200034b565b5b6001851615620001825780820291505b808102905062000192856200037a565b945062000152565b94509492505050565b6000620001b08262000341565b9150620001bd8362000341565b9250620001ec7fffffffffffffffffffffffffffffffffffffffffffffffffffffffffffffffff8484620001f4565b905092915050565b600082620002065760019050620002d9565b81620002165760009050620002d9565b81600181146200022f57600281146200023a5762000270565b6001915050620002d9565b60ff8411156200024f576200024e6200034b565b5b8360020a9150848211156200026957620002686200034b565b5b50620002d9565b5060208310610133831016604e8410600b8410161715620002aa5782820a905083811115620002a457620002a36200034b565b5b620002d9565b620002b9848484600162000148565b92509050818404811115620002d357620002d26200034b565b5b81810290505b9392505050565b6000620002ed8262000341565b9150620002fa8362000341565b9250817fffffffffffffffffffffffffffffffffffffffffffffffffffffffffffffffff04831182151516156200033657620003356200034b565b5b828202905092915050565b6000819050919050565b7f4e487b7100000000000000000000000000000000000000000000000000000000600052601160045260246000fd5b60008160011c9050919050565b61571580620003976000396000f3fe608060405234801561001057600080fd5b50600436106102485760003560e01c80637ee1eec81161013b578063b513bf5d116100b8578063e292fb961161007c578063e292fb9614610703578063e7eed1f714610721578063ea63f5c91461073f578063ebe70dee1461076f578063f2fde38b1461079f57610248565b8063b513bf5d1461065f578063b6b852431461067d578063c1a62abd14610699578063d33ddce4146106b5578063d953db9e146106d357610248565b80639848970a116100ff5780639848970a146105b95780639a38f0f4146105e95780639dc5368d146106075780639ee30600146106255780639ee7138c1461064157610248565b80637ee1eec814610513578063893d20e81461051d5780638da5cb5b1461053b57806392898bc41461055957806392faf9ff1461058957610248565b80633743bf9c116101c95780634fe309701161018d5780634fe309701461046c57806351e7630d1461048a578063523a3f08146104a85780636e225934146104d8578063715018a61461050957610248565b80633743bf9c146103b25780633ae1786f146103d05780634347e7d3146104005780634ce1cf0c1461041e5780634d86e99a1461044e57610248565b80631811878711610210578063181187871461031e5780631f7275e91461033c57806326a4e8d21461035a5780632e4ab48a14610376578063314982491461039457610248565b806306be96421461024d578063098134821461027d57806310fe9ae8146102b2578063128e1af0146102d057806314c2a1bc14610300575b600080fd5b610267600480360381019061026291906147a4565b6107bb565b6040516102749190615200565b60405180910390f35b610297600480360381019061029291906147a4565b61084d565b6040516102a996959493929190615244565b60405180910390f35b6102ba610978565b6040516102c79190614ec8565b60405180910390f35b6102ea60048036038101906102e591906147a4565b6109a2565b6040516102f79190614f65565b60405180910390f35b610308610a5d565b6040516103159190615200565b60405180910390f35b610326610c94565b6040516103339190614f65565b60405180910390f35b610344611095565b6040516103519190614f65565b60405180910390f35b610374600480360381019061036f9190614716565b6110b2565b005b61037e611236565b60405161038b9190615200565b60405180910390f35b61039c611280565b6040516103a99190615200565b60405180910390f35b6103ba6113ed565b6040516103c79190614f43565b60405180910390f35b6103ea60048036038101906103e591906147a4565b611432565b6040516103f79190614f65565b60405180910390f35b610408611824565b6040516104159190615200565b60405180910390f35b6104386004803603810190610433919061473f565b61186e565b6040516104459190615200565b60405180910390f35b610456611989565b6040516104639190614f43565b60405180910390f35b610474611a54565b6040516104819190614f65565b60405180910390f35b610492611bc5565b60405161049f9190615200565b60405180910390f35b6104c260048036038101906104bd91906147a4565b611cdf565b6040516104cf9190614f65565b60405180910390f35b6104f260048036038101906104ed9190614716565b612091565b6040516105009291906152a5565b60405180910390f35b610511612305565b005b61051b612458565b005b610525612646565b6040516105329190614ec8565b60405180910390f35b610543612655565b6040516105509190614ec8565b60405180910390f35b610573600480360381019061056e91906147a4565b61267e565b6040516105809190615200565b60405180910390f35b6105a3600480360381019061059e91906147a4565b61280b565b6040516105b09190615200565b60405180910390f35b6105d360048036038101906105ce9190614716565b612925565b6040516105e09190615200565b60405180910390f35b6105f1612a55565b6040516105fe9190614f65565b60405180910390f35b61060f612ab4565b60405161061c9190614f43565b60405180910390f35b61063f600480360381019061063a91906147f6565b612bd7565b005b610649613054565b6040516106569190614f65565b60405180910390f35b6106676130bd565b6040516106749190615200565b60405180910390f35b610697600480360381019061069291906147a4565b6131eb565b005b6106b360048036038101906106ae91906147a4565b61350a565b005b6106bd6137d3565b6040516106ca9190614ec8565b60405180910390f35b6106ed60048036038101906106e891906147a4565b61388d565b6040516106fa9190615200565b60405180910390f35b61070b6139e5565b6040516107189190615200565b60405180910390f35b6107296139ef565b6040516107369190615200565b60405180910390f35b610759600480360381019061075491906147a4565b6139f9565b6040516107669190615200565b60405180910390f35b61078960048036038101906107849190614716565b613b1c565b6040516107969190615200565b60405180910390f35b6107b960048036038101906107b49190614716565b613c22565b005b6000600260003373ffffffffffffffffffffffffffffffffffffffff1673ffffffffffffffffffffffffffffffffffffffff1681526020019081526020016000208281548110610834577f4e487b7100000000000000000000000000000000000000000000000000000000600052603260045260246000fd5b9060005260206000209060040201600301549050919050565b6000806000806000806000600260003373ffffffffffffffffffffffffffffffffffffffff1673ffffffffffffffffffffffffffffffffffffffff16815260200190815260200160002088815481106108cf577f4e487b7100000000000000000000000000000000000000000000000000000000600052603260045260246000fd5b906000526020600020906004020160405180608001604052908160008201548152602001600182015481526020016002820160009054906101000a900460ff161515151581526020016003820154815250509050600061092e8961388d565b9050600061093f8360000151613de4565b9050600061094b6137d3565b90508360000151846040015185602001518386869950995099509950995099505050505091939550919395565b6000600360009054906101000a900473ffffffffffffffffffffffffffffffffffffffff16905090565b6000600260015414156109ea576040517f08c379a00000000000000000000000000000000000000000000000000000000081526004016109e1906151a0565b60405180910390fd5b6002600181905550600554821115610a31577f67ed6f55aeca4bd969e4caf8ffe6d777edf0434bab6b87d04490ba3b9c9926b860405160405180910390a160009050610a51565b610a4682600554613e1990919063ffffffff16565b600581905550600190505b60018081905550919050565b60008073ffffffffffffffffffffffffffffffffffffffff16600360009054906101000a900473ffffffffffffffffffffffffffffffffffffffff1673ffffffffffffffffffffffffffffffffffffffff161415610af0576040517f08c379a0000000000000000000000000000000000000000000000000000000008152600401610ae7906150e0565b60405180910390fd5b6000600260003373ffffffffffffffffffffffffffffffffffffffff1673ffffffffffffffffffffffffffffffffffffffff168152602001908152602001600020805480602002602001604051908101604052809291908181526020016000905b82821015610bbc578382906000526020600020906004020160405180608001604052908160008201548152602001600182015481526020016002820160009054906101000a900460ff1615151515815260200160038201548152505081526020019060010190610b51565b5050505090506000600260003373ffffffffffffffffffffffffffffffffffffffff1673ffffffffffffffffffffffffffffffffffffffff16815260200190815260200160002080549050905060008080600090505b83811015610c8957848181518110610c53577f4e487b7100000000000000000000000000000000000000000000000000000000600052603260045260246000fd5b6020026020010151600001519150610c748284613e2f90919063ffffffff16565b92508080610c81906155e6565b915050610c12565b508194505050505090565b600060026001541415610cdc576040517f08c379a0000000000000000000000000000000000000000000000000000000008152600401610cd3906151a0565b60405180910390fd5b60026001819055506000600960003373ffffffffffffffffffffffffffffffffffffffff1673ffffffffffffffffffffffffffffffffffffffff1681526020019081526020016000208054905090506000805b82811015610eaf576000600960003373ffffffffffffffffffffffffffffffffffffffff1673ffffffffffffffffffffffffffffffffffffffff1681526020019081526020016000208281548110610db0577f4e487b7100000000000000000000000000000000000000000000000000000000600052603260045260246000fd5b9060005260206000200160009054906101000a900473ffffffffffffffffffffffffffffffffffffffff1690506000610de882613b1c565b9050610dfd8185613e2f90919063ffffffff16565b9350610e5481600a60008573ffffffffffffffffffffffffffffffffffffffff1673ffffffffffffffffffffffffffffffffffffffff16815260200190815260200160002060010154613e2f90919063ffffffff16565b600a60008473ffffffffffffffffffffffffffffffffffffffff1673ffffffffffffffffffffffffffffffffffffffff1681526020019081526020016000206001018190555050508080610ea7906155e6565b915050610d2f565b50610eb981613e45565b610ef8576040517f08c379a0000000000000000000000000000000000000000000000000000000008152600401610eef90614fa0565b60405180910390fd5b600554811115610f3d576040517f08c379a0000000000000000000000000000000000000000000000000000000008152600401610f34906150a0565b60405180910390fd5b610f5281600554613e1990919063ffffffff16565b600581905550600460009054906101000a900473ffffffffffffffffffffffffffffffffffffffff1673ffffffffffffffffffffffffffffffffffffffff1663a9059cbb33836040518363ffffffff1660e01b8152600401610fb5929190614f1a565b602060405180830381600087803b158015610fcf57600080fd5b505af1158015610fe3573d6000803e3d6000fd5b505050506040513d601f19601f82011682018060405250810190611007919061477b565b1561104a577f61d4848e7db08e721dc597a2b0071f398c6a28b3715466955c21c7b5108d6d5c338260405161103d929190614f1a565b60405180910390a1611085565b6040517f08c379a000000000000000000000000000000000000000000000000000000000815260040161107c90615100565b60405180910390fd5b6001925050506001808190555090565b60008060065411156110aa57600190506110af565b600090505b90565b6110ba613e7f565b73ffffffffffffffffffffffffffffffffffffffff1660008054906101000a900473ffffffffffffffffffffffffffffffffffffffff1673ffffffffffffffffffffffffffffffffffffffff1614611147576040517f08c379a000000000000000000000000000000000000000000000000000000000815260040161113e906150c0565b60405180910390fd5b61115081613e87565b61118f576040517f08c379a000000000000000000000000000000000000000000000000000000000815260040161118690615160565b60405180910390fd5b80600360006101000a81548173ffffffffffffffffffffffffffffffffffffffff021916908373ffffffffffffffffffffffffffffffffffffffff160217905550600360009054906101000a900473ffffffffffffffffffffffffffffffffffffffff16600460006101000a81548173ffffffffffffffffffffffffffffffffffffffff021916908373ffffffffffffffffffffffffffffffffffffffff16021790555050565b6000600260003373ffffffffffffffffffffffffffffffffffffffff1673ffffffffffffffffffffffffffffffffffffffff16815260200190815260200160002080549050905090565b600061128a613e7f565b73ffffffffffffffffffffffffffffffffffffffff1660008054906101000a900473ffffffffffffffffffffffffffffffffffffffff1673ffffffffffffffffffffffffffffffffffffffff1614611317576040517f08c379a000000000000000000000000000000000000000000000000000000000815260040161130e906150c0565b60405180910390fd5b6000600b8054905090506000805b828110156113e4576000600b8281548110611369577f4e487b7100000000000000000000000000000000000000000000000000000000600052603260045260246000fd5b9060005260206000200160009054906101000a900473ffffffffffffffffffffffffffffffffffffffff1690506113b16113a282612925565b84613e2f90919063ffffffff16565b92506113ce6113bf82613e9a565b84613e2f90919063ffffffff16565b92505080806113dc906155e6565b915050611325565b50809250505090565b6060600960003373ffffffffffffffffffffffffffffffffffffffff1673ffffffffffffffffffffffffffffffffffffffff1681526020019081526020016000205090565b60006002600154141561147a576040517f08c379a0000000000000000000000000000000000000000000000000000000008152600401611471906151a0565b60405180910390fd5b60026001819055506000600260003373ffffffffffffffffffffffffffffffffffffffff1673ffffffffffffffffffffffffffffffffffffffff16815260200190815260200160002083815481106114fb577f4e487b7100000000000000000000000000000000000000000000000000000000600052603260045260246000fd5b906000526020600020906004020160405180608001604052908160008201548152602001600182015481526020016002820160009054906101000a900460ff16151515158152602001600382015481525050905060001515816040015115151461159a576040517f08c379a000000000000000000000000000000000000000000000000000000000815260040161159190615120565b60405180910390fd5b60008160000151905060006115ae82613de4565b905060006115c58284613e1990919063ffffffff16565b905060006115dc8285613e1990919063ffffffff16565b90506115e781613e45565b611626576040517f08c379a000000000000000000000000000000000000000000000000000000000815260040161161d90614fe0565b60405180910390fd5b61163b83600554613e2f90919063ffffffff16565b6005819055506001600260003373ffffffffffffffffffffffffffffffffffffffff1673ffffffffffffffffffffffffffffffffffffffff16815260200190815260200160002088815481106116ba577f4e487b7100000000000000000000000000000000000000000000000000000000600052603260045260246000fd5b906000526020600020906004020160020160006101000a81548160ff021916908315150217905550600460009054906101000a900473ffffffffffffffffffffffffffffffffffffffff1673ffffffffffffffffffffffffffffffffffffffff1663a9059cbb33846040518363ffffffff1660e01b815260040161173f929190614f1a565b602060405180830381600087803b15801561175957600080fd5b505af115801561176d573d6000803e3d6000fd5b505050506040513d601f19601f82011682018060405250810190611791919061477b565b156117d4577fa410544f83eadf8c1b5ed87c43259151da8c2dcaace26a8441a95e7770d7240a87836040516117c79291906152a5565b60405180910390a161180f565b6040517f08c379a000000000000000000000000000000000000000000000000000000000815260040161180690615100565b60405180910390fd5b60019550505050505060018081905550919050565b6000600960003373ffffffffffffffffffffffffffffffffffffffff1673ffffffffffffffffffffffffffffffffffffffff16815260200190815260200160002080549050905090565b600080600260008573ffffffffffffffffffffffffffffffffffffffff1673ffffffffffffffffffffffffffffffffffffffff16815260200190815260200160002083815481106118e8577f4e487b7100000000000000000000000000000000000000000000000000000000600052603260045260246000fd5b906000526020600020906004020160405180608001604052908160008201548152602001600182015481526020016002820160009054906101000a900460ff1615151515815260200160038201548152505090506000816020015190506000429050600061195f8383613e1990919063ffffffff16565b90506000611979620151808361405290919063ffffffff16565b9050809550505050505092915050565b6060600960003373ffffffffffffffffffffffffffffffffffffffff1673ffffffffffffffffffffffffffffffffffffffff168152602001908152602001600020805480602002602001604051908101604052809291908181526020018280548015611a4a57602002820191906000526020600020905b8160009054906101000a900473ffffffffffffffffffffffffffffffffffffffff1673ffffffffffffffffffffffffffffffffffffffff1681526020019060010190808311611a00575b5050505050905090565b600080600a60003373ffffffffffffffffffffffffffffffffffffffff1673ffffffffffffffffffffffffffffffffffffffff1681526020019081526020016000206040518060400160405290816000820160009054906101000a900473ffffffffffffffffffffffffffffffffffffffff1673ffffffffffffffffffffffffffffffffffffffff1673ffffffffffffffffffffffffffffffffffffffff1681526020016001820154815250509050600073ffffffffffffffffffffffffffffffffffffffff16816000015173ffffffffffffffffffffffffffffffffffffffff161480611b725750600173ffffffffffffffffffffffffffffffffffffffff16816000015173ffffffffffffffffffffffffffffffffffffffff16145b15611bbc576000816020015114611bb2577f4e487b7100000000000000000000000000000000000000000000000000000000600052600160045260246000fd5b6000915050611bc2565b60019150505b90565b600080600260003373ffffffffffffffffffffffffffffffffffffffff1673ffffffffffffffffffffffffffffffffffffffff1681526020019081526020016000208054905090506000805b82811015611cd657600260003373ffffffffffffffffffffffffffffffffffffffff1673ffffffffffffffffffffffffffffffffffffffff1681526020019081526020016000208181548110611c90577f4e487b7100000000000000000000000000000000000000000000000000000000600052603260045260246000fd5b906000526020600020906004020160020160009054906101000a900460ff16611cc357600182611cc09190615318565b91505b8080611cce906155e6565b915050611c11565b50809250505090565b600060026001541415611d27576040517f08c379a0000000000000000000000000000000000000000000000000000000008152600401611d1e906151a0565b60405180910390fd5b60026001819055506000600260003373ffffffffffffffffffffffffffffffffffffffff1673ffffffffffffffffffffffffffffffffffffffff1681526020019081526020016000208381548110611da8577f4e487b7100000000000000000000000000000000000000000000000000000000600052603260045260246000fd5b906000526020600020906004020160405180608001604052908160008201548152602001600182015481526020016002820160009054906101000a900460ff1615151515815260200160038201548152505090506000611e078461388d565b9050611e1281613e45565b611e51576040517f08c379a0000000000000000000000000000000000000000000000000000000008152600401611e4890615080565b60405180910390fd5b600554811115611e96576040517f08c379a0000000000000000000000000000000000000000000000000000000008152600401611e8d906150a0565b60405180910390fd5b611eab81600554613e1990919063ffffffff16565b600581905550611ec8818360600151613e2f90919063ffffffff16565b600260003373ffffffffffffffffffffffffffffffffffffffff1673ffffffffffffffffffffffffffffffffffffffff1681526020019081526020016000208581548110611f3f577f4e487b7100000000000000000000000000000000000000000000000000000000600052603260045260246000fd5b906000526020600020906004020160030181905550600460009054906101000a900473ffffffffffffffffffffffffffffffffffffffff1673ffffffffffffffffffffffffffffffffffffffff1663a9059cbb33836040518363ffffffff1660e01b8152600401611fb1929190614f1a565b602060405180830381600087803b158015611fcb57600080fd5b505af1158015611fdf573d6000803e3d6000fd5b505050506040513d601f19601f82011682018060405250810190612003919061477b565b15612044577fa4b06025edc86026e2c30cfa971a842c3c847db9729ad23b444e9c92ef5a26c8336040516120379190614ec8565b60405180910390a161207f565b6040517f08c379a000000000000000000000000000000000000000000000000000000000815260040161207690615100565b60405180910390fd5b60019250505060018081905550919050565b6000806000600260008573ffffffffffffffffffffffffffffffffffffffff1673ffffffffffffffffffffffffffffffffffffffff16815260200190815260200160002080549050905060006012600a6120eb91906153f2565b620186a06120f99190615510565b905060008060005b848110156122df5783600260008a73ffffffffffffffffffffffffffffffffffffffff1673ffffffffffffffffffffffffffffffffffffffff1681526020019081526020016000208281548110612181577f4e487b7100000000000000000000000000000000000000000000000000000000600052603260045260246000fd5b906000526020600020906004020160000154116122cb57600260008973ffffffffffffffffffffffffffffffffffffffff1673ffffffffffffffffffffffffffffffffffffffff168152602001908152602001600020818154811061220f577f4e487b7100000000000000000000000000000000000000000000000000000000600052603260045260246000fd5b906000526020600020906004020160020160009054906101000a900460ff1615612238576122cc565b600260008973ffffffffffffffffffffffffffffffffffffffff1673ffffffffffffffffffffffffffffffffffffffff16815260200190815260200160002081815481106122af577f4e487b7100000000000000000000000000000000000000000000000000000000600052603260045260246000fd5b9060005260206000209060040201600001549350809250600191505b5b80806122d7906155e6565b915050612101565b50806122f5576000809550955050505050612300565b828295509550505050505b915091565b61230d613e7f565b73ffffffffffffffffffffffffffffffffffffffff1660008054906101000a900473ffffffffffffffffffffffffffffffffffffffff1673ffffffffffffffffffffffffffffffffffffffff161461239a576040517f08c379a0000000000000000000000000000000000000000000000000000000008152600401612391906150c0565b60405180910390fd5b600073ffffffffffffffffffffffffffffffffffffffff1660008054906101000a900473ffffffffffffffffffffffffffffffffffffffff1673ffffffffffffffffffffffffffffffffffffffff167f8be0079c531659141344cd1fd0a4f28419497f9722a3daafe3b4186f6b6457e060405160405180910390a360008060006101000a81548173ffffffffffffffffffffffffffffffffffffffff021916908373ffffffffffffffffffffffffffffffffffffffff160217905550565b612460613e7f565b73ffffffffffffffffffffffffffffffffffffffff1660008054906101000a900473ffffffffffffffffffffffffffffffffffffffff1673ffffffffffffffffffffffffffffffffffffffff16146124ed576040517f08c379a00000000000000000000000000000000000000000000000000000000081526004016124e4906150c0565b60405180910390fd5b60026001541415612533576040517f08c379a000000000000000000000000000000000000000000000000000000000815260040161252a906151a0565b60405180910390fd5b60026001819055506000612545614068565b9050600460009054906101000a900473ffffffffffffffffffffffffffffffffffffffff1673ffffffffffffffffffffffffffffffffffffffff1663a9059cbb61258d612655565b836040518363ffffffff1660e01b81526004016125ab929190614f1a565b602060405180830381600087803b1580156125c557600080fd5b505af11580156125d9573d6000803e3d6000fd5b505050506040513d601f19601f820116820180604052508101906125fd919061477b565b61263c576040517f08c379a000000000000000000000000000000000000000000000000000000000815260040161263390615100565b60405180910390fd5b5060018081905550565b6000612650612655565b905090565b60008060009054906101000a900473ffffffffffffffffffffffffffffffffffffffff16905090565b600080600260003373ffffffffffffffffffffffffffffffffffffffff1673ffffffffffffffffffffffffffffffffffffffff16815260200190815260200160002083815481106126f8577f4e487b7100000000000000000000000000000000000000000000000000000000600052603260045260246000fd5b906000526020600020906004020160405180608001604052908160008201548152602001600182015481526020016002820160009054906101000a900460ff16151515158152602001600382015481525050905060006127578461280b565b9050600082600001519050600081905060005b838110156127c757600061279c606461278e61014d8661411a90919063ffffffff16565b61405290919063ffffffff16565b90506127b18184613e2f90919063ffffffff16565b92505080806127bf906155e6565b91505061276a565b50818110156127ff577f4e487b7100000000000000000000000000000000000000000000000000000000600052600160045260246000fd5b80945050505050919050565b600080600260003373ffffffffffffffffffffffffffffffffffffffff1673ffffffffffffffffffffffffffffffffffffffff1681526020019081526020016000208381548110612885577f4e487b7100000000000000000000000000000000000000000000000000000000600052603260045260246000fd5b906000526020600020906004020160405180608001604052908160008201548152602001600182015481526020016002820160009054906101000a900460ff161515151581526020016003820154815250509050600081602001519050600042905060006128fc8383613e1990919063ffffffff16565b90506000612916620151808361405290919063ffffffff16565b90508095505050505050919050565b600080600960008473ffffffffffffffffffffffffffffffffffffffff1673ffffffffffffffffffffffffffffffffffffffff1681526020019081526020016000208054905090506000805b82811015612a4a57612a35612a26600960008873ffffffffffffffffffffffffffffffffffffffff1673ffffffffffffffffffffffffffffffffffffffff16815260200190815260200160002083815481106129f6577f4e487b7100000000000000000000000000000000000000000000000000000000600052603260045260246000fd5b9060005260206000200160009054906101000a900473ffffffffffffffffffffffffffffffffffffffff16613b1c565b83613e2f90919063ffffffff16565b91508080612a42906155e6565b915050612971565b508092505050919050565b60006012600a612a6591906153f2565b6302625a00612a749190615510565b6012600a612a8291906153f2565b6302faf080612a919190615510565b612a9b919061556a565b60065410612aac5760009050612ab1565b600190505b90565b6060612abe613e7f565b73ffffffffffffffffffffffffffffffffffffffff1660008054906101000a900473ffffffffffffffffffffffffffffffffffffffff1673ffffffffffffffffffffffffffffffffffffffff1614612b4b576040517f08c379a0000000000000000000000000000000000000000000000000000000008152600401612b42906150c0565b60405180910390fd5b600b805480602002602001604051908101604052809291908181526020018280548015612bcd57602002820191906000526020600020905b8160009054906101000a900473ffffffffffffffffffffffffffffffffffffffff1673ffffffffffffffffffffffffffffffffffffffff1681526020019060010190808311612b83575b5050505050905090565b60026001541415612c1d576040517f08c379a0000000000000000000000000000000000000000000000000000000008152600401612c14906151a0565b60405180910390fd5b6002600181905550600073ffffffffffffffffffffffffffffffffffffffff16600360009054906101000a900473ffffffffffffffffffffffffffffffffffffffff1673ffffffffffffffffffffffffffffffffffffffff161415612cb7576040517f08c379a0000000000000000000000000000000000000000000000000000000008152600401612cae906150e0565b60405180910390fd5b6012600a612cc591906153f2565b6064612cd19190615510565b821015612d13576040517f08c379a0000000000000000000000000000000000000000000000000000000008152600401612d0a906151c0565b60405180910390fd5b6012600a612d2191906153f2565b620186a0612d2f9190615510565b821115612d71576040517f08c379a0000000000000000000000000000000000000000000000000000000008152600401612d6890615180565b60405180910390fd5b612d79612a55565b15612db9576040517f08c379a0000000000000000000000000000000000000000000000000000000008152600401612db090615040565b60405180910390fd5b6000339050612dc6614668565b838160000181815250506000816040019015159081151581525050428160200181815250506000816060018181525050600260008373ffffffffffffffffffffffffffffffffffffffff1673ffffffffffffffffffffffffffffffffffffffff168152602001908152602001600020819080600181540180825580915050600190039060005260206000209060040201600090919091909150600082015181600001556020820151816001015560408201518160020160006101000a81548160ff021916908315150217905550606082015181600301555050612ea7611a54565b612eb557612eb483614130565b5b600b339080600181540180825580915050600190039060005260206000200160009091909190916101000a81548173ffffffffffffffffffffffffffffffffffffffff021916908373ffffffffffffffffffffffffffffffffffffffff160217905550600460009054906101000a900473ffffffffffffffffffffffffffffffffffffffff1673ffffffffffffffffffffffffffffffffffffffff166323b872dd3330876040518463ffffffff1660e01b8152600401612f7793929190614ee3565b602060405180830381600087803b158015612f9157600080fd5b505af1158015612fa5573d6000803e3d6000fd5b505050506040513d601f19601f82011682018060405250810190612fc9919061477b565b1561300c577f1fb6e3d7cae02b590e0aeed7ed3fd02a558811be73cdea80d1b42a0970b8b81b8484604051612fff92919061521b565b60405180910390a1613047565b6040517f08c379a000000000000000000000000000000000000000000000000000000000815260040161303e90615100565b60405180910390fd5b5050600180819055505050565b60008073ffffffffffffffffffffffffffffffffffffffff16600360009054906101000a900473ffffffffffffffffffffffffffffffffffffffff1673ffffffffffffffffffffffffffffffffffffffff1614156130b557600090506130ba565b600190505b90565b600080600960003373ffffffffffffffffffffffffffffffffffffffff1673ffffffffffffffffffffffffffffffffffffffff1681526020019081526020016000208054905090506000805b828110156131e2576131cd6131be600960003373ffffffffffffffffffffffffffffffffffffffff1673ffffffffffffffffffffffffffffffffffffffff168152602001908152602001600020838154811061318e577f4e487b7100000000000000000000000000000000000000000000000000000000600052603260045260246000fd5b9060005260206000200160009054906101000a900473ffffffffffffffffffffffffffffffffffffffff16613b1c565b83613e2f90919063ffffffff16565b915080806131da906155e6565b915050613109565b50809250505090565b6131f3613e7f565b73ffffffffffffffffffffffffffffffffffffffff1660008054906101000a900473ffffffffffffffffffffffffffffffffffffffff1673ffffffffffffffffffffffffffffffffffffffff1614613280576040517f08c379a0000000000000000000000000000000000000000000000000000000008152600401613277906150c0565b60405180910390fd5b600260015414156132c6576040517f08c379a00000000000000000000000000000000000000000000000000000000081526004016132bd906151a0565b60405180910390fd5b6002600181905550600073ffffffffffffffffffffffffffffffffffffffff16600360009054906101000a900473ffffffffffffffffffffffffffffffffffffffff1673ffffffffffffffffffffffffffffffffffffffff161415613360576040517f08c379a0000000000000000000000000000000000000000000000000000000008152600401613357906151e0565b60405180910390fd5b600061337782600554613e1990919063ffffffff16565b10156133b8576040517f08c379a00000000000000000000000000000000000000000000000000000000081526004016133af90615060565b60405180910390fd5b6133cd81600554613e1990919063ffffffff16565b600581905550600460009054906101000a900473ffffffffffffffffffffffffffffffffffffffff1673ffffffffffffffffffffffffffffffffffffffff1663a9059cbb33836040518363ffffffff1660e01b8152600401613430929190614f1a565b602060405180830381600087803b15801561344a57600080fd5b505af115801561345e573d6000803e3d6000fd5b505050506040513d601f19601f82011682018060405250810190613482919061477b565b156134c5577f2ba2169cd2502a6cc4fd55f87f2dcbceef588b593aa4fdc883d4fc62e65ed6a96005546040516134b89190615200565b60405180910390a1613500565b6040517f08c379a00000000000000000000000000000000000000000000000000000000081526004016134f790615020565b60405180910390fd5b6001808190555050565b613512613e7f565b73ffffffffffffffffffffffffffffffffffffffff1660008054906101000a900473ffffffffffffffffffffffffffffffffffffffff1673ffffffffffffffffffffffffffffffffffffffff161461359f576040517f08c379a0000000000000000000000000000000000000000000000000000000008152600401613596906150c0565b60405180910390fd5b600260015414156135e5576040517f08c379a00000000000000000000000000000000000000000000000000000000081526004016135dc906151a0565b60405180910390fd5b6002600181905550600073ffffffffffffffffffffffffffffffffffffffff16600360009054906101000a900473ffffffffffffffffffffffffffffffffffffffff1673ffffffffffffffffffffffffffffffffffffffff16141561367f576040517f08c379a0000000000000000000000000000000000000000000000000000000008152600401613676906151e0565b60405180910390fd5b61369481600554613e2f90919063ffffffff16565b600581905550600460009054906101000a900473ffffffffffffffffffffffffffffffffffffffff1673ffffffffffffffffffffffffffffffffffffffff166323b872dd3330846040518463ffffffff1660e01b81526004016136f993929190614ee3565b602060405180830381600087803b15801561371357600080fd5b505af1158015613727573d6000803e3d6000fd5b505050506040513d601f19601f8201168201806040525081019061374b919061477b565b1561378e577f2ba2169cd2502a6cc4fd55f87f2dcbceef588b593aa4fdc883d4fc62e65ed6a96005546040516137819190615200565b60405180910390a16137c9565b6040517f08c379a00000000000000000000000000000000000000000000000000000000081526004016137c090615020565b60405180910390fd5b6001808190555050565b600080600a60003373ffffffffffffffffffffffffffffffffffffffff1673ffffffffffffffffffffffffffffffffffffffff1681526020019081526020016000206040518060400160405290816000820160009054906101000a900473ffffffffffffffffffffffffffffffffffffffff1673ffffffffffffffffffffffffffffffffffffffff1673ffffffffffffffffffffffffffffffffffffffff1681526020016001820154815250509050806000015191505090565b600080600260003373ffffffffffffffffffffffffffffffffffffffff1673ffffffffffffffffffffffffffffffffffffffff1681526020019081526020016000208381548110613907577f4e487b7100000000000000000000000000000000000000000000000000000000600052603260045260246000fd5b906000526020600020906004020160405180608001604052908160008201548152602001600182015481526020016002820160009054906101000a900460ff16151515158152602001600382015481525050905060008160000151905060008260600151905060006139788661280b565b9050600061399161014d8561411a90919063ffffffff16565b905060006139bd620186a06139af858561411a90919063ffffffff16565b61405290919063ffffffff16565b905060006139d48583613e1990919063ffffffff16565b905080975050505050505050919050565b6000600654905090565b6000600554905090565b60008073ffffffffffffffffffffffffffffffffffffffff16600360009054906101000a900473ffffffffffffffffffffffffffffffffffffffff1673ffffffffffffffffffffffffffffffffffffffff161415613a8c576040517f08c379a0000000000000000000000000000000000000000000000000000000008152600401613a83906150e0565b60405180910390fd5b600260003373ffffffffffffffffffffffffffffffffffffffff1673ffffffffffffffffffffffffffffffffffffffff1681526020019081526020016000208281548110613b03577f4e487b7100000000000000000000000000000000000000000000000000000000600052603260045260246000fd5b9060005260206000209060040201600001549050919050565b6000806000613b2a84612091565b8092508193505050600082148015613b425750600081145b15613b5257600092505050613c1d565b6000613b5e858361186e565b90506000613b9e620186a0613b9084613b8261014d8961411a90919063ffffffff16565b61411a90919063ffffffff16565b61405290919063ffffffff16565b90506000600a60008873ffffffffffffffffffffffffffffffffffffffff1673ffffffffffffffffffffffffffffffffffffffff168152602001908152602001600020600101549050808211613bfc57600095505050505050613c1d565b6000613c118284613e1990919063ffffffff16565b90508096505050505050505b919050565b613c2a613e7f565b73ffffffffffffffffffffffffffffffffffffffff1660008054906101000a900473ffffffffffffffffffffffffffffffffffffffff1673ffffffffffffffffffffffffffffffffffffffff1614613cb7576040517f08c379a0000000000000000000000000000000000000000000000000000000008152600401613cae906150c0565b60405180910390fd5b600073ffffffffffffffffffffffffffffffffffffffff168173ffffffffffffffffffffffffffffffffffffffff161415613d27576040517f08c379a0000000000000000000000000000000000000000000000000000000008152600401613d1e90614fc0565b60405180910390fd5b8073ffffffffffffffffffffffffffffffffffffffff1660008054906101000a900473ffffffffffffffffffffffffffffffffffffffff1673ffffffffffffffffffffffffffffffffffffffff167f8be0079c531659141344cd1fd0a4f28419497f9722a3daafe3b4186f6b6457e060405160405180910390a3806000806101000a81548173ffffffffffffffffffffffffffffffffffffffff021916908373ffffffffffffffffffffffffffffffffffffffff16021790555050565b600080613dfb60148461411a90919063ffffffff16565b9050613e1160648261405290919063ffffffff16565b915050919050565b60008183613e27919061556a565b905092915050565b60008183613e3d9190615318565b905092915050565b6000600654821115613e5a5760009050613e7a565b613e6f82600654613e1990919063ffffffff16565b600681905550600190505b919050565b600033905090565b600080823b905060008111915050919050565b6000613ea4613e7f565b73ffffffffffffffffffffffffffffffffffffffff1660008054906101000a900473ffffffffffffffffffffffffffffffffffffffff1673ffffffffffffffffffffffffffffffffffffffff1614613f31576040517f08c379a0000000000000000000000000000000000000000000000000000000008152600401613f28906150c0565b60405180910390fd5b6000600260008473ffffffffffffffffffffffffffffffffffffffff1673ffffffffffffffffffffffffffffffffffffffff168152602001908152602001600020805480602002602001604051908101604052809291908181526020016000905b82821015613ffd578382906000526020600020906004020160405180608001604052908160008201548152602001600182015481526020016002820160009054906101000a900460ff1615151515815260200160038201548152505081526020019060010190613f92565b5050505090506000815190506000805b82811015614046576140316140228783614478565b83613e2f90919063ffffffff16565b9150808061403e906155e6565b91505061400d565b50809350505050919050565b60008183614060919061536e565b905092915050565b6000600460009054906101000a900473ffffffffffffffffffffffffffffffffffffffff1673ffffffffffffffffffffffffffffffffffffffff166370a08231306040518263ffffffff1660e01b81526004016140c59190614ec8565b60206040518083038186803b1580156140dd57600080fd5b505afa1580156140f1573d6000803e3d6000fd5b505050506040513d601f19601f8201168201806040525081019061411591906147cd565b905090565b600081836141289190615510565b905092915050565b600073ffffffffffffffffffffffffffffffffffffffff168173ffffffffffffffffffffffffffffffffffffffff1614156141a0576040517f08c379a000000000000000000000000000000000000000000000000000000000815260040161419790614f80565b60405180910390fd5b6141a8611a54565b156141e8576040517f08c379a00000000000000000000000000000000000000000000000000000000081526004016141df90615140565b60405180910390fd5b600173ffffffffffffffffffffffffffffffffffffffff168173ffffffffffffffffffffffffffffffffffffffff16141561422257614475565b3373ffffffffffffffffffffffffffffffffffffffff168173ffffffffffffffffffffffffffffffffffffffff161415614291576040517f08c379a000000000000000000000000000000000000000000000000000000000815260040161428890615000565b60405180910390fd5b600960008273ffffffffffffffffffffffffffffffffffffffff1673ffffffffffffffffffffffffffffffffffffffff168152602001908152602001600020339080600181540180825580915050600190039060005260206000200160009091909190916101000a81548173ffffffffffffffffffffffffffffffffffffffff021916908373ffffffffffffffffffffffffffffffffffffffff160217905550614339614692565b81816000019073ffffffffffffffffffffffffffffffffffffffff16908173ffffffffffffffffffffffffffffffffffffffff1681525050600081602001818152505080600a60003373ffffffffffffffffffffffffffffffffffffffff1673ffffffffffffffffffffffffffffffffffffffff16815260200190815260200160002060008201518160000160006101000a81548173ffffffffffffffffffffffffffffffffffffffff021916908373ffffffffffffffffffffffffffffffffffffffff16021790555060208201518160010155905050600b829080600181540180825580915050600190039060005260206000200160009091909190916101000a81548173ffffffffffffffffffffffffffffffffffffffff021916908373ffffffffffffffffffffffffffffffffffffffff160217905550505b50565b6000614482613e7f565b73ffffffffffffffffffffffffffffffffffffffff1660008054906101000a900473ffffffffffffffffffffffffffffffffffffffff1673ffffffffffffffffffffffffffffffffffffffff161461450f576040517f08c379a0000000000000000000000000000000000000000000000000000000008152600401614506906150c0565b60405180910390fd5b6000600260008573ffffffffffffffffffffffffffffffffffffffff1673ffffffffffffffffffffffffffffffffffffffff1681526020019081526020016000208381548110614588577f4e487b7100000000000000000000000000000000000000000000000000000000600052603260045260246000fd5b906000526020600020906004020160405180608001604052908160008201548152602001600182015481526020016002820160009054906101000a900460ff16151515158152602001600382015481525050905060008160000151905060008260600151905060006145fa878761186e565b9050600061461361014d8561411a90919063ffffffff16565b9050600061463f620186a0614631858561411a90919063ffffffff16565b61405290919063ffffffff16565b905060006146568583613e1990919063ffffffff16565b90508097505050505050505092915050565b60405180608001604052806000815260200160008152602001600015158152602001600081525090565b6040518060400160405280600073ffffffffffffffffffffffffffffffffffffffff168152602001600081525090565b6000813590506146d18161569a565b92915050565b6000815190506146e6816156b1565b92915050565b6000813590506146fb816156c8565b92915050565b600081519050614710816156c8565b92915050565b60006020828403121561472857600080fd5b6000614736848285016146c2565b91505092915050565b6000806040838503121561475257600080fd5b6000614760858286016146c2565b9250506020614771858286016146ec565b9150509250929050565b60006020828403121561478d57600080fd5b600061479b848285016146d7565b91505092915050565b6000602082840312156147b657600080fd5b60006147c4848285016146ec565b91505092915050565b6000602082840312156147df57600080fd5b60006147ed84828501614701565b91505092915050565b6000806040838503121561480957600080fd5b6000614817858286016146ec565b9250506020614828858286016146c2565b9150509250929050565b600061483e838361484a565b60208301905092915050565b6148538161559e565b82525050565b6148628161559e565b82525050565b6000614873826152de565b61487d81856152f6565b9350614888836152ce565b8060005b838110156148b95781516148a08882614832565b97506148ab836152e9565b92505060018101905061488c565b5085935050505092915050565b6148cf816155b0565b82525050565b60006148e2600f83615307565b91507f496e76616c6964206164647265737300000000000000000000000000000000006000830152602082019050919050565b6000614922601583615307565b91507f4d616368696e65206c696d6974207265616368656400000000000000000000006000830152602082019050919050565b6000614962602683615307565b91507f4f776e61626c653a206e6577206f776e657220697320746865207a65726f206160008301527f64647265737300000000000000000000000000000000000000000000000000006020830152604082019050919050565b60006149c8600d83615307565b91507f4c696d69742072656163686564000000000000000000000000000000000000006000830152602082019050919050565b6000614a08602d83615307565b91507f526566657272616c206973207468652073616d65206173207468652073656e6460008301527f65722c20666f7262696464656e000000000000000000000000000000000000006020830152604082019050919050565b6000614a6e601783615307565b91507f556e61626c6520746f207472616e6665722066756e64730000000000000000006000830152602082019050919050565b6000614aae601283615307565b91507f537562736372697074696f6e20656e64656400000000000000000000000000006000830152602082019050919050565b6000614aee601083615307565b91507f4e6f7420656e6f75676820746f6b656e000000000000000000000000000000006000830152602082019050919050565b6000614b2e601683615307565b91507f537570706c696564206c696d69742072656163686564000000000000000000006000830152602082019050919050565b6000614b6e600d83615307565b91507f506f7420657868617573746564000000000000000000000000000000000000006000830152602082019050919050565b6000614bae602083615307565b91507f4f776e61626c653a2063616c6c6572206973206e6f7420746865206f776e65726000830152602082019050919050565b6000614bee600f83615307565b91507f4e6f20636f6e74726163742073657400000000000000000000000000000000006000830152602082019050919050565b6000614c2e601883615307565b91507f556e61626c6520746f207472616e736665722066756e647300000000000000006000830152602082019050919050565b6000614c6e601b83615307565b91507f5374616b65207765726520616c72656164792072657475726e656400000000006000830152602082019050919050565b6000614cae601783615307565b91507f526566657272616c20616c7265616479207365747465640000000000000000006000830152602082019050919050565b6000614cee602883615307565b91507f546865206164647265737320646f6573206e6f7420706f696e7420746f20612060008301527f636f6e74726163740000000000000000000000000000000000000000000000006020830152604082019050919050565b6000614d54602783615307565b91507f596f75206d757374207374616b65206174206d6178696d756d2031303030303060008301527f20746f6b656e73000000000000000000000000000000000000000000000000006020830152604082019050919050565b6000614dba601f83615307565b91507f5265656e7472616e637947756172643a207265656e7472616e742063616c6c006000830152602082019050919050565b6000614dfa602283615307565b91507f596f75206d757374207374616b65206174206c656173742031303020746f6b6560008301527f6e730000000000000000000000000000000000000000000000000000000000006020830152604082019050919050565b6000614e60602383615307565b91507f54686520546f6b656e20436f6e7472616374206973206e6f742073706563696660008301527f69656400000000000000000000000000000000000000000000000000000000006020830152604082019050919050565b614ec2816155dc565b82525050565b6000602082019050614edd6000830184614859565b92915050565b6000606082019050614ef86000830186614859565b614f056020830185614859565b614f126040830184614eb9565b949350505050565b6000604082019050614f2f6000830185614859565b614f3c6020830184614eb9565b9392505050565b60006020820190508181036000830152614f5d8184614868565b905092915050565b6000602082019050614f7a60008301846148c6565b92915050565b60006020820190508181036000830152614f99816148d5565b9050919050565b60006020820190508181036000830152614fb981614915565b9050919050565b60006020820190508181036000830152614fd981614955565b9050919050565b60006020820190508181036000830152614ff9816149bb565b9050919050565b60006020820190508181036000830152615019816149fb565b9050919050565b6000602082019050818103600083015261503981614a61565b9050919050565b6000602082019050818103600083015261505981614aa1565b9050919050565b6000602082019050818103600083015261507981614ae1565b9050919050565b6000602082019050818103600083015261509981614b21565b9050919050565b600060208201905081810360008301526150b981614b61565b9050919050565b600060208201905081810360008301526150d981614ba1565b9050919050565b600060208201905081810360008301526150f981614be1565b9050919050565b6000602082019050818103600083015261511981614c21565b9050919050565b6000602082019050818103600083015261513981614c61565b9050919050565b6000602082019050818103600083015261515981614ca1565b9050919050565b6000602082019050818103600083015261517981614ce1565b9050919050565b6000602082019050818103600083015261519981614d47565b9050919050565b600060208201905081810360008301526151b981614dad565b9050919050565b600060208201905081810360008301526151d981614ded565b9050919050565b600060208201905081810360008301526151f981614e53565b9050919050565b60006020820190506152156000830184614eb9565b92915050565b60006040820190506152306000830185614eb9565b61523d6020830184614859565b9392505050565b600060c0820190506152596000830189614eb9565b61526660208301886148c6565b6152736040830187614eb9565b6152806060830186614859565b61528d6080830185614eb9565b61529a60a0830184614eb9565b979650505050505050565b60006040820190506152ba6000830185614eb9565b6152c76020830184614eb9565b9392505050565b6000819050602082019050919050565b600081519050919050565b6000602082019050919050565b600082825260208201905092915050565b600082825260208201905092915050565b6000615323826155dc565b915061532e836155dc565b9250827fffffffffffffffffffffffffffffffffffffffffffffffffffffffffffffffff038211156153635761536261562f565b5b828201905092915050565b6000615379826155dc565b9150615384836155dc565b9250826153945761539361565e565b5b828204905092915050565b6000808291508390505b60018511156153e9578086048111156153c5576153c461562f565b5b60018516156153d45780820291505b80810290506153e28561568d565b94506153a9565b94509492505050565b60006153fd826155dc565b9150615408836155dc565b92506154357fffffffffffffffffffffffffffffffffffffffffffffffffffffffffffffffff848461543d565b905092915050565b60008261544d5760019050615509565b8161545b5760009050615509565b8160018114615471576002811461547b576154aa565b6001915050615509565b60ff84111561548d5761548c61562f565b5b8360020a9150848211156154a4576154a361562f565b5b50615509565b5060208310610133831016604e8410600b84101617156154df5782820a9050838111156154da576154d961562f565b5b615509565b6154ec848484600161539f565b925090508184048111156155035761550261562f565b5b81810290505b9392505050565b600061551b826155dc565b9150615526836155dc565b9250817fffffffffffffffffffffffffffffffffffffffffffffffffffffffffffffffff048311821515161561555f5761555e61562f565b5b828202905092915050565b6000615575826155dc565b9150615580836155dc565b9250828210156155935761559261562f565b5b828203905092915050565b60006155a9826155bc565b9050919050565b60008115159050919050565b600073ffffffffffffffffffffffffffffffffffffffff82169050919050565b6000819050919050565b60006155f1826155dc565b91507fffffffffffffffffffffffffffffffffffffffffffffffffffffffffffffffff8214156156245761562361562f565b5b600182019050919050565b7f4e487b7100000000000000000000000000000000000000000000000000000000600052601160045260246000fd5b7f4e487b7100000000000000000000000000000000000000000000000000000000600052601260045260246000fd5b60008160011c9050919050565b6156a38161559e565b81146156ae57600080fd5b50565b6156ba816155b0565b81146156c557600080fd5b50565b6156d1816155dc565b81146156dc57600080fd5b5056fea2646970667358221220abc75e0f89a5f243c690bea7540e28bf7e740ed2e8e45586f9363754656d450c64736f6c63430008000033",
  "immutableReferences": {},
  "source": "pragma solidity ^0.8.0;\n\nimport \"openzeppelin-contracts/token/ERC20/ERC20.sol\";\nimport \"openzeppelin-contracts/math/SafeMath.sol\";\nimport \"openzeppelin-contracts/access/Ownable.sol\";\nimport \"openzeppelin-contracts/utils/Address.sol\";\n\nimport \"openzeppelin-contracts/utils/ReentrancyGuard.sol\";\n\n\ncontract Staking is Ownable, ReentrancyGuard {\n    using SafeMath for uint;\n    using SafeMath for uint256;\n    using SafeMath for uint8;\n\n\n\n    struct Stake{\n        uint deposit_amount;        //Deposited Amount\n        uint stake_creation_time;   //The time when the stake was created\n        bool returned;              //Specifies if the funds were withdrawed\n        uint alreadyWithdrawedAmount;   //TODO Correct Lint\n    }\n\n\n    struct Account{\n        address referral;\n        uint referralAlreadyWithdrawed;\n    }\n\n\n    //---------------------------------------------------------------------\n    //-------------------------- EVENTS -----------------------------------\n    //---------------------------------------------------------------------\n\n\n    event PotUpdated(\n        uint newPot\n    );\n\n\n\n    event PotExhausted(\n\n    );\n\n\n    event NewStake(\n        uint stakeAmount,\n        address from\n    );\n\n    event StakeWithdraw(\n        uint stakeID,\n        uint amount\n    );\n\n  \n\n\n    event referralRewardSent(\n        address account,\n        uint reward\n    );\n\n    event rewardWithdrawed(\n        address account\n    );\n\n\n \n    event machineStopped(\n    );\n\n\n    event subscriptionStopped(\n    );\n\n\n\n    //--------------------------------------------------------------------\n    //-------------------------- GLOBALS -----------------------------------\n    //--------------------------------------------------------------------\n\n    mapping (address => Stake[]) private stake; /// @dev Map that contains account's stakes\n\n    address private tokenAddress;\n\n    ERC20 private ERC20Interface;\n\n    uint private pot;    //The pot where token are taken\n\n    uint256 private amount_supplied;    //Store the remaining token to be supplied\n\n    uint private pauseTime;     //Time when the machine paused\n    uint private stopTime;      //Time when the machine stopped\n\n\n\n\n    // @dev Mapping the referrals\n    mapping (address => address[]) private referral;    //Store account that used the referral\n\n    mapping (address => Account) private account_referral;  //Store the setted account referral\n\n\n    address[] private activeAccounts;   //Store both staker and referer address\n\n\n    uint256 private constant _DECIMALS = 18;\n\n    uint256 private constant _INTEREST_PERIOD = 1 days;    //One Month\n    uint256 private constant _INTEREST_VALUE = 333;    //0.333% per day\n\n    uint256 private constant _PENALTY_VALUE = 20;    //20% of the total stake\n\n\n\n    uint256 private constant _MIN_STAKE_AMOUNT = 100 * (10**_DECIMALS);\n\n    uint256 private constant _MAX_STAKE_AMOUNT = 100000 * (10**_DECIMALS);\n\n    uint private constant _REFERALL_REWARD = 333; //0.333% per day\n\n    uint256 private constant _MAX_TOKEN_SUPPLY_LIMIT =     50000000 * (10**_DECIMALS);\n    uint256 private constant _MIDTERM_TOKEN_SUPPLY_LIMIT = 40000000 * (10**_DECIMALS);\n\n\n    constructor() public {\n        pot = 0;\n        amount_supplied = _MAX_TOKEN_SUPPLY_LIMIT;    //The total amount of token released\n        tokenAddress = address(0);\n    }\n\n    //--------------------------------------------------------------------\n    //-------------------------- TOKEN ADDRESS -----------------------------------\n    //--------------------------------------------------------------------\n\n\n    function setTokenAddress(address _tokenAddress) external onlyOwner {\n        require(Address.isContract(_tokenAddress), \"The address does not point to a contract\");\n\n        tokenAddress = _tokenAddress;\n        ERC20Interface = ERC20(tokenAddress);\n    }\n\n    function isTokenSet() external view returns (bool) {\n        if(tokenAddress == address(0))\n            return false;\n        return true;\n    }\n\n    function getTokenAddress() external view returns (address){\n        return tokenAddress;\n    }\n\n    //--------------------------------------------------------------------\n    //-------------------------- ONLY OWNER -----------------------------------\n    //--------------------------------------------------------------------\n\n\n    function depositPot(uint _amount) external onlyOwner nonReentrant {\n        require(tokenAddress != address(0), \"The Token Contract is not specified\");\n\n        pot = pot.add(_amount);\n\n        if(ERC20Interface.transferFrom(msg.sender, address(this), _amount)){\n            //Emit the event to update the UI\n            emit PotUpdated(pot);\n        }else{\n            revert(\"Unable to tranfer funds\");\n        }\n\n    }\n\n\n    function returnPot(uint _amount) external onlyOwner nonReentrant{\n        require(tokenAddress != address(0), \"The Token Contract is not specified\");\n        require(pot.sub(_amount) >= 0, \"Not enough token\");\n\n        pot = pot.sub(_amount);\n\n        if(ERC20Interface.transfer(msg.sender, _amount)){\n            //Emit the event to update the UI\n            emit PotUpdated(pot);\n        }else{\n            revert(\"Unable to tranfer funds\");\n        }\n\n    }\n\n\n    function finalShutdown() external onlyOwner nonReentrant{\n\n        uint machineAmount = getMachineBalance();\n\n        if(!ERC20Interface.transfer(owner(), machineAmount)){\n            revert(\"Unable to transfer funds\");\n        }\n        //Goodbye\n    }\n\n    function getAllAccount() external onlyOwner view returns (address[] memory){\n        return activeAccounts;\n    }\n\n    function getPotentialWithdrawAmount() external onlyOwner view returns (uint){\n        uint accountNumber = activeAccounts.length;\n\n        uint potentialAmount = 0;\n\n        for(uint i = 0; i<accountNumber; i++){\n\n            address currentAccount = activeAccounts[i];\n\n            potentialAmount = potentialAmount.add(calculateTotalRewardReferral(currentAccount));    //Referral\n\n            potentialAmount = potentialAmount.add(calculateTotalRewardToWithdraw(currentAccount));  //Normal Reward\n        }\n\n        return potentialAmount;\n    }\n\n\n    //--------------------------------------------------------------------\n    //-------------------------- CLIENTS -----------------------------------\n    //--------------------------------------------------------------------\n\n\n    function stakeToken(uint _amount, address _referralAddress) external nonReentrant {\n\n        require(tokenAddress != address(0), \"No contract set\");\n\n        require(_amount >= _MIN_STAKE_AMOUNT, \"You must stake at least 100 tokens\");\n        require(_amount <= _MAX_STAKE_AMOUNT, \"You must stake at maximum 100000 tokens\");\n\n        require(!isSubscriptionEnded(), \"Subscription ended\");\n\n        address staker = msg.sender;\n        Stake memory newStake;\n\n        newStake.deposit_amount = _amount;\n        newStake.returned = false;\n        newStake.stake_creation_time = block.timestamp;\n        newStake.alreadyWithdrawedAmount = 0;\n\n        stake[staker].push(newStake);\n\n        if(!hasReferral()){\n            setReferral(_referralAddress);\n        }\n\n        activeAccounts.push(msg.sender);\n\n        if(ERC20Interface.transferFrom(msg.sender, address(this), _amount)){\n            emit NewStake(_amount, _referralAddress);\n        }else{\n            revert(\"Unable to transfer funds\");\n        }\n\n\n    }\n\n\n    function returnTokens(uint _stakeID) external nonReentrant returns (bool){\n        Stake memory selectedStake = stake[msg.sender][_stakeID];\n\n        //Check if the stake were already withdraw\n        require(selectedStake.returned == false, \"Stake were already returned\");\n\n        uint deposited_amount = selectedStake.deposit_amount;\n        //Get the net reward\n        uint penalty = calculatePenalty(deposited_amount);\n\n        //Sum the net reward to the total reward to withdraw\n        uint total_amount = deposited_amount.sub(penalty);\n\n\n        //Update the supplied amount considering also the penalty\n        uint supplied = deposited_amount.sub(total_amount);\n        require(updateSuppliedToken(supplied), \"Limit reached\");\n\n        //Add the penalty to the pot\n        pot = pot.add(penalty);\n\n\n        //Only set the withdraw flag in order to disable further withdraw\n        stake[msg.sender][_stakeID].returned = true;\n\n        if(ERC20Interface.transfer(msg.sender, total_amount)){\n            emit StakeWithdraw(_stakeID, total_amount);\n        }else{\n            revert(\"Unable to transfer funds\");\n        }\n\n\n        return true;\n    }\n\n\n    function withdrawReward(uint _stakeID) external nonReentrant returns (bool){\n        Stake memory _stake = stake[msg.sender][_stakeID];\n\n        uint rewardToWithdraw = calculateRewardToWithdraw(_stakeID);\n\n        require(updateSuppliedToken(rewardToWithdraw), \"Supplied limit reached\");\n\n        if(rewardToWithdraw > pot){\n            revert(\"Pot exhausted\");\n        }\n\n        pot = pot.sub(rewardToWithdraw);\n\n        stake[msg.sender][_stakeID].alreadyWithdrawedAmount = _stake.alreadyWithdrawedAmount.add(rewardToWithdraw);\n\n        if(ERC20Interface.transfer(msg.sender, rewardToWithdraw)){\n            emit rewardWithdrawed(msg.sender);\n        }else{\n            revert(\"Unable to transfer funds\");\n        }\n\n        return true;\n    }\n\n\n    function withdrawReferralReward() external nonReentrant returns (bool){\n        uint referralCount = referral[msg.sender].length;\n\n        uint totalAmount = 0;\n\n        for(uint i = 0; i<referralCount; i++){\n            address currentAccount = referral[msg.sender][i];\n            uint currentReward = calculateRewardReferral(currentAccount);\n\n            totalAmount = totalAmount.add(currentReward);\n\n            //Update the alreadyWithdrawed status\n            account_referral[currentAccount].referralAlreadyWithdrawed = account_referral[currentAccount].referralAlreadyWithdrawed.add(currentReward);\n        }\n\n        require(updateSuppliedToken(totalAmount), \"Machine limit reached\");\n\n        //require(withdrawFromPot(totalAmount), \"Pot exhausted\");\n\n        if(totalAmount > pot){\n            revert(\"Pot exhausted\");\n        }\n\n        pot = pot.sub(totalAmount);\n\n\n        if(ERC20Interface.transfer(msg.sender, totalAmount)){\n            emit referralRewardSent(msg.sender, totalAmount);\n        }else{\n            revert(\"Unable to transfer funds\");\n        }\n\n\n        return true;\n    }\n\n\n    function withdrawFromPot(uint _amount) public nonReentrant returns (bool){\n\n        if(_amount > pot){\n            emit PotExhausted();\n            return false;\n        }\n\n        //Update the pot value\n\n        pot = pot.sub(_amount);\n        return true;\n\n    }\n\n\n    //--------------------------------------------------------------------\n    //-------------------------- VIEWS -----------------------------------\n    //--------------------------------------------------------------------\n\n    function getCurrentStakeAmount(uint _stakeID) external view returns (uint256)  {\n        require(tokenAddress != address(0), \"No contract set\");\n\n        return stake[msg.sender][_stakeID].deposit_amount;\n    }\n\n  \n    function getTotalStakeAmount() external view returns (uint256) {\n        require(tokenAddress != address(0), \"No contract set\");\n\n        Stake[] memory currentStake = stake[msg.sender];\n        uint nummberOfStake = stake[msg.sender].length;\n        uint totalStake = 0;\n        uint tmp;\n        for (uint i = 0; i<nummberOfStake; i++){\n            tmp = currentStake[i].deposit_amount;\n            totalStake = totalStake.add(tmp);\n        }\n\n        return totalStake;\n    }\n\n\n    function getStakeInfo(uint _stakeID) external view returns(uint, bool, uint, address, uint, uint){\n\n        Stake memory selectedStake = stake[msg.sender][_stakeID];\n\n        uint amountToWithdraw = calculateRewardToWithdraw(_stakeID);\n\n        uint penalty = calculatePenalty(selectedStake.deposit_amount);\n\n        address myReferral = getMyReferral();\n\n        return (\n            selectedStake.deposit_amount,\n            selectedStake.returned,\n            selectedStake.stake_creation_time,\n            myReferral,\n            amountToWithdraw,\n            penalty\n        );\n    }\n\n\n\n    function getCurrentPot() external view returns (uint){\n        return pot;\n    }\n\n \n    function getStakeCount() external view returns (uint){\n        return stake[msg.sender].length;\n    }\n\n\n    function getActiveStakeCount() external view returns(uint){\n        uint stakeCount = stake[msg.sender].length;\n\n        uint count = 0;\n\n        for(uint i = 0; i<stakeCount; i++){\n            if(!stake[msg.sender][i].returned){\n                count = count + 1;\n            }\n        }\n        return count;\n    }\n\n\n    function getReferralCount() external view returns (uint) {\n        return referral[msg.sender].length;\n    }\n\n    function getAccountReferral() external view returns (address[] memory){\n        referral[msg.sender];\n    }\n\n    function getAlreadyWithdrawedAmount(uint _stakeID) external view returns (uint){\n        return stake[msg.sender][_stakeID].alreadyWithdrawedAmount;\n    }\n\n\n    //--------------------------------------------------------------------\n    //-------------------------- REFERRALS -----------------------------------\n    //--------------------------------------------------------------------\n\n\n    function hasReferral() public view returns (bool){\n\n        Account memory myAccount = account_referral[msg.sender];\n\n        if(myAccount.referral == address(0) || myAccount.referral == address(0x0000000000000000000000000000000000000001)){\n            //If I have no referral...\n            assert(myAccount.referralAlreadyWithdrawed == 0);\n            return false;\n        }\n\n        return true;\n    }\n\n\n    function getMyReferral() public view returns (address){\n        Account memory myAccount = account_referral[msg.sender];\n\n        return myAccount.referral;\n    }\n\n\n    function setReferral(address referer) internal {\n        require(referer != address(0), \"Invalid address\");\n        require(!hasReferral(), \"Referral already setted\");\n\n        if(referer == address(0x0000000000000000000000000000000000000001)){\n            return;   //This means no referer\n        }\n\n        if(referer == msg.sender){\n            revert(\"Referral is the same as the sender, forbidden\");\n        }\n\n        referral[referer].push(msg.sender);\n\n        Account memory account;\n\n        account.referral = referer;\n        account.referralAlreadyWithdrawed = 0;\n\n        account_referral[msg.sender] = account;\n\n        activeAccounts.push(referer);    //Add to the list of active account for pot calculation\n    }\n\n\n    function getCurrentReferrals() external view returns (address[] memory){\n        return referral[msg.sender];\n    }\n\n\n    function calculateRewardReferral(address customer) public view returns (uint){\n\n        uint lowestStake;\n        uint lowStakeID;\n        (lowestStake, lowStakeID) = getLowestStake(customer);\n\n        if(lowestStake == 0 && lowStakeID == 0){\n            return 0;\n        }\n\n        uint periods = calculateAccountStakePeriods(customer, lowStakeID);\n\n        uint currentReward = lowestStake.mul(_REFERALL_REWARD).mul(periods).div(100000);\n\n        uint alreadyWithdrawed = account_referral[customer].referralAlreadyWithdrawed;\n\n\n        if(currentReward <= alreadyWithdrawed){\n            return 0;   //Already withdrawed all the in the past\n        }\n\n\n        uint availableReward = currentReward.sub(alreadyWithdrawed);\n\n        return availableReward;\n    }\n\n\n    function calculateTotalRewardReferral() external view returns (uint){\n\n        uint referralCount = referral[msg.sender].length;\n\n        uint totalAmount = 0;\n\n        for(uint i = 0; i<referralCount; i++){\n            totalAmount = totalAmount.add(calculateRewardReferral(referral[msg.sender][i]));\n        }\n\n        return totalAmount;\n    }\n\n    function calculateTotalRewardReferral(address _account) public view returns (uint){\n\n        uint referralCount = referral[_account].length;\n\n        uint totalAmount = 0;\n\n        for(uint i = 0; i<referralCount; i++){\n            totalAmount = totalAmount.add(calculateRewardReferral(referral[_account][i]));\n        }\n\n        return totalAmount;\n    }\n\n    function getLowestStake(address customer) public view returns (uint, uint){\n        uint stakeNumber = stake[customer].length;\n        uint min = _MAX_STAKE_AMOUNT;\n        uint minID = 0;\n        bool foundFlag = false;\n\n        for(uint i = 0; i<stakeNumber; i++){\n            if(stake[customer][i].deposit_amount <= min){\n                if(stake[customer][i].returned){\n                    continue;\n                }\n                min = stake[customer][i].deposit_amount;\n                minID = i;\n                foundFlag = true;\n            }\n        }\n\n\n        if(!foundFlag){\n            return (0, 0);\n        }else{\n            return (min, minID);\n        }\n\n    }\n\n\n\n    //--------------------------------------------------------------------\n    //-------------------------- INTERNAL -----------------------------------\n    //--------------------------------------------------------------------\n\n\n    function calculateRewardToWithdraw(uint _stakeID) public view returns (uint){\n        Stake memory _stake = stake[msg.sender][_stakeID];\n\n        uint amount_staked = _stake.deposit_amount;\n        uint already_withdrawed = _stake.alreadyWithdrawedAmount;\n\n        uint periods = calculatePeriods(_stakeID);  //Periods for interest calculation\n\n        uint interest = amount_staked.mul(_INTEREST_VALUE);\n\n        uint total_interest = interest.mul(periods).div(100000);\n\n        uint reward = total_interest.sub(already_withdrawed); //Subtract the already withdrawed amount\n\n        return reward;\n    }\n\n    function calculateRewardToWithdraw(address _account, uint _stakeID) internal view onlyOwner returns (uint){\n        Stake memory _stake = stake[_account][_stakeID];\n\n        uint amount_staked = _stake.deposit_amount;\n        uint already_withdrawed = _stake.alreadyWithdrawedAmount;\n\n        uint periods = calculateAccountStakePeriods(_account, _stakeID);  //Periods for interest calculation\n\n        uint interest = amount_staked.mul(_INTEREST_VALUE);\n\n        uint total_interest = interest.mul(periods).div(100000);\n\n        uint reward = total_interest.sub(already_withdrawed); //Subtract the already withdrawed amount\n\n        return reward;\n    }\n\n    function calculateTotalRewardToWithdraw(address _account) internal view onlyOwner returns (uint){\n        Stake[] memory accountStakes = stake[_account];\n\n        uint stakeNumber = accountStakes.length;\n        uint amount = 0;\n\n        for( uint i = 0; i<stakeNumber; i++){\n            amount = amount.add(calculateRewardToWithdraw(_account, i));\n        }\n\n        return amount;\n    }\n\n    function calculateCompoundInterest(uint _stakeID) external view returns (uint256){\n\n        Stake memory _stake = stake[msg.sender][_stakeID];\n\n        uint256 periods = calculatePeriods(_stakeID);\n        uint256 amount_staked = _stake.deposit_amount;\n\n        uint256 excepted_amount = amount_staked;\n\n        //Calculate reward\n        for(uint i = 0; i < periods; i++){\n\n            uint256 period_interest;\n\n            period_interest = excepted_amount.mul(_INTEREST_VALUE).div(100);\n\n            excepted_amount = excepted_amount.add(period_interest);\n        }\n\n        assert(excepted_amount >= amount_staked);\n\n        return excepted_amount;\n    }\n\n    function calculatePeriods(uint _stakeID) public view returns (uint){\n        Stake memory _stake = stake[msg.sender][_stakeID];\n\n\n        uint creation_time = _stake.stake_creation_time;\n        uint current_time = block.timestamp;\n\n        uint total_period = current_time.sub(creation_time);\n\n        uint periods = total_period.div(_INTEREST_PERIOD);\n\n        return periods;\n    }\n\n    function calculateAccountStakePeriods(address _account, uint _stakeID) public view returns (uint){\n        Stake memory _stake = stake[_account][_stakeID];\n\n\n        uint creation_time = _stake.stake_creation_time;\n        uint current_time = block.timestamp;\n\n        uint total_period = current_time.sub(creation_time);\n\n        uint periods = total_period.div(_INTEREST_PERIOD);\n\n        return periods;\n    }\n\n    function calculatePenalty(uint _amountStaked) private pure returns (uint){\n        uint tmp_penalty = _amountStaked.mul(_PENALTY_VALUE);   //Take the 10 percent\n        return tmp_penalty.div(100);\n    }\n\n    function updateSuppliedToken(uint _amount) internal returns (bool){\n        \n        if(_amount > amount_supplied){\n            return false;\n        }\n        \n        amount_supplied = amount_supplied.sub(_amount);\n        return true;\n    }\n\n    function checkPotBalance(uint _amount) internal view returns (bool){\n        if(pot >= _amount){\n            return true;\n        }\n        return false;\n    }\n\n\n\n    function getMachineBalance() internal view returns (uint){\n        return ERC20Interface.balanceOf(address(this));\n    }\n\n    function getMachineState() external view returns (uint){\n        return amount_supplied;\n    }\n\n    function isSubscriptionEnded() public view returns (bool){\n        if(amount_supplied >= _MAX_TOKEN_SUPPLY_LIMIT - _MIDTERM_TOKEN_SUPPLY_LIMIT){\n            return false;\n        }else{\n            return true;\n        }\n    }\n\n    function isMachineStopped() public view returns (bool){\n        if(amount_supplied > 0){\n            return true;\n        }else{\n            return false;\n        }\n    }\n\n    //--------------------------------------------------------------\n    //------------------------ DEBUG -------------------------------\n    //--------------------------------------------------------------\n\n    function getOwner() external view returns (address){\n        return owner();\n    }\n\n}",
  "sourcePath": "/home/tmuneebanjum/coin-to-bsc-using-truffle/contracts/Staking.sol",
  "compiler": {
    "name": "solc",
    "version": "0.8.0+commit.c7dfd78e.Emscripten.clang"
  },
  "schemaVersion": "3.4.1",
  "updatedAt": "2021-07-05T08:41:17.878Z",
  "networkType": "ethereum",
  "devdoc": {
    "kind": "dev",
    "methods": {
      "owner()": {
        "details": "Returns the address of the current owner."
      },
      "renounceOwnership()": {
        "details": "Leaves the contract without owner. It will not be possible to call `onlyOwner` functions anymore. Can only be called by the current owner. NOTE: Renouncing ownership will leave the contract without an owner, thereby removing any functionality that is only available to the owner."
      },
      "transferOwnership(address)": {
        "details": "Transfers ownership of the contract to a new account (`newOwner`). Can only be called by the current owner."
      }
    },
    "stateVariables": {
      "tokenAddress": {
        "details": "Map that contains account's stakes"
      }
    },
    "version": 1
  },
  "userdoc": {
    "kind": "user",
    "methods": {},
    "version": 1
  }
}